{
  "_format": "hh-sol-artifact-1",
  "contractName": "TaskPortal",
  "sourceName": "contracts/TaskPortal.sol",
  "abi": [
    {
      "inputs": [],
      "stateMutability": "payable",
      "type": "constructor"
    },
    {
      "anonymous": false,
      "inputs": [
        {
          "indexed": true,
          "internalType": "address",
          "name": "from",
          "type": "address"
        },
        {
          "indexed": false,
          "internalType": "string",
          "name": "task",
          "type": "string"
        },
        {
          "indexed": false,
          "internalType": "uint256",
          "name": "pledge",
          "type": "uint256"
        },
        {
          "indexed": false,
          "internalType": "uint256",
          "name": "timestamp",
          "type": "uint256"
        }
      ],
      "name": "TaskCompleted",
      "type": "event"
    },
    {
      "anonymous": false,
      "inputs": [
        {
          "indexed": true,
          "internalType": "address",
          "name": "from",
          "type": "address"
        },
        {
          "indexed": false,
          "internalType": "string",
          "name": "task",
          "type": "string"
        },
        {
          "indexed": false,
          "internalType": "uint256",
          "name": "pledge",
          "type": "uint256"
        },
        {
          "indexed": false,
          "internalType": "uint256",
          "name": "timestamp",
          "type": "uint256"
        }
      ],
      "name": "TaskCreated",
      "type": "event"
    },
    {
      "inputs": [],
      "name": "getOpenTasks",
      "outputs": [
        {
          "components": [
            {
              "internalType": "uint256",
              "name": "id",
              "type": "uint256"
            },
            {
              "internalType": "address",
              "name": "sender",
              "type": "address"
            },
            {
              "internalType": "string",
              "name": "task",
              "type": "string"
            },
            {
              "internalType": "uint256",
              "name": "pledge",
              "type": "uint256"
            },
            {
              "internalType": "uint256",
              "name": "timestamp",
              "type": "uint256"
            }
          ],
          "internalType": "struct TaskPortal.Task[]",
          "name": "",
          "type": "tuple[]"
        }
      ],
      "stateMutability": "view",
      "type": "function"
    },
    {
      "inputs": [],
      "name": "getTaskCnt",
      "outputs": [
        {
          "internalType": "uint256",
          "name": "",
          "type": "uint256"
        }
      ],
      "stateMutability": "view",
      "type": "function"
    },
    {
      "inputs": [
        {
          "internalType": "string",
          "name": "_task",
          "type": "string"
        }
      ],
      "name": "newTask",
      "outputs": [],
      "stateMutability": "payable",
      "type": "function"
    }
  ],
  "bytecode": "0x6080604052610e88806100136000396000f3fe6080604052600436106100345760003560e01c80638c908ce614610039578063c10f9b1d14610064578063d5a82aa014610080575b600080fd5b34801561004557600080fd5b5061004e6100ab565b60405161005b9190610557565b60405180910390f35b61007e600480360381019061007991906106cc565b6100c2565b005b34801561008c57600080fd5b50610095610311565b6040516100a2919061091c565b60405180910390f35b60006005546006546100bd919061096d565b905090565b600034116100cf57600080fd5b6040518060a0016040528060016005546100e9919061096d565b81526020013373ffffffffffffffffffffffffffffffffffffffff16815260200182815260200134815260200142815250600080820151816000015560208201518160010160006101000a81548173ffffffffffffffffffffffffffffffffffffffff021916908373ffffffffffffffffffffffffffffffffffffffff16021790555060408201518160020190816101819190610bad565b506060820151816003015560808201518160040155905050600760009080600181540180825580915050600190039060005260206000209060050201600090919091909150600082015481600001556001820160009054906101000a900473ffffffffffffffffffffffffffffffffffffffff168160010160006101000a81548173ffffffffffffffffffffffffffffffffffffffff021916908373ffffffffffffffffffffffffffffffffffffffff1602179055506002820181600201908161024b9190610c95565b5060038201548160030155600482015481600401555050600160056000828254610275919061096d565b925050819055506102bc6040518060400160405280600b81526020017f25732073656e7420256b210000000000000000000000000000000000000000008152503334610476565b3373ffffffffffffffffffffffffffffffffffffffff167f4bbe14a1f7b1afab3aa9eb2567340d96a22c9a4e4ef46a886c2402ef8b8596af82344260405161030693929190610dc7565b60405180910390a250565b60606007805480602002602001604051908101604052809291908181526020016000905b8282101561046d57838290600052602060002090600502016040518060a0016040529081600082015481526020016001820160009054906101000a900473ffffffffffffffffffffffffffffffffffffffff1673ffffffffffffffffffffffffffffffffffffffff1673ffffffffffffffffffffffffffffffffffffffff1681526020016002820180546103c8906109d0565b80601f01602080910402602001604051908101604052809291908181526020018280546103f4906109d0565b80156104415780601f1061041657610100808354040283529160200191610441565b820191906000526020600020905b81548152906001019060200180831161042457829003601f168201915b505050505081526020016003820154815260200160048201548152505081526020019060010190610335565b50505050905090565b61051083838360405160240161048e93929190610e14565b6040516020818303038152906040527f0d26b925000000000000000000000000000000000000000000000000000000007bffffffffffffffffffffffffffffffffffffffffffffffffffffffff19166020820180517bffffffffffffffffffffffffffffffffffffffffffffffffffffffff8381831617835250505050610515565b505050565b60008151905060006a636f6e736f6c652e6c6f679050602083016000808483855afa5050505050565b6000819050919050565b6105518161053e565b82525050565b600060208201905061056c6000830184610548565b92915050565b6000604051905090565b600080fd5b600080fd5b600080fd5b600080fd5b6000601f19601f8301169050919050565b7f4e487b7100000000000000000000000000000000000000000000000000000000600052604160045260246000fd5b6105d982610590565b810181811067ffffffffffffffff821117156105f8576105f76105a1565b5b80604052505050565b600061060b610572565b905061061782826105d0565b919050565b600067ffffffffffffffff821115610637576106366105a1565b5b61064082610590565b9050602081019050919050565b82818337600083830152505050565b600061066f61066a8461061c565b610601565b90508281526020810184848401111561068b5761068a61058b565b5b61069684828561064d565b509392505050565b600082601f8301126106b3576106b2610586565b5b81356106c384826020860161065c565b91505092915050565b6000602082840312156106e2576106e161057c565b5b600082013567ffffffffffffffff811115610700576106ff610581565b5b61070c8482850161069e565b91505092915050565b600081519050919050565b600082825260208201905092915050565b6000819050602082019050919050565b61074a8161053e565b82525050565b600073ffffffffffffffffffffffffffffffffffffffff82169050919050565b600061077b82610750565b9050919050565b61078b81610770565b82525050565b600081519050919050565b600082825260208201905092915050565b60005b838110156107cb5780820151818401526020810190506107b0565b60008484015250505050565b60006107e282610791565b6107ec818561079c565b93506107fc8185602086016107ad565b61080581610590565b840191505092915050565b600060a0830160008301516108286000860182610741565b50602083015161083b6020860182610782565b506040830151848203604086015261085382826107d7565b91505060608301516108686060860182610741565b50608083015161087b6080860182610741565b508091505092915050565b60006108928383610810565b905092915050565b6000602082019050919050565b60006108b282610715565b6108bc8185610720565b9350836020820285016108ce85610731565b8060005b8581101561090a57848403895281516108eb8582610886565b94506108f68361089a565b925060208a019950506001810190506108d2565b50829750879550505050505092915050565b6000602082019050818103600083015261093681846108a7565b905092915050565b7f4e487b7100000000000000000000000000000000000000000000000000000000600052601160045260246000fd5b60006109788261053e565b91506109838361053e565b925082820190508082111561099b5761099a61093e565b5b92915050565b7f4e487b7100000000000000000000000000000000000000000000000000000000600052602260045260246000fd5b600060028204905060018216806109e857607f821691505b6020821081036109fb576109fa6109a1565b5b50919050565b60008190508160005260206000209050919050565b60006020601f8301049050919050565b600082821b905092915050565b600060088302610a637fffffffffffffffffffffffffffffffffffffffffffffffffffffffffffffffff82610a26565b610a6d8683610a26565b95508019841693508086168417925050509392505050565b6000819050919050565b6000610aaa610aa5610aa08461053e565b610a85565b61053e565b9050919050565b6000819050919050565b610ac483610a8f565b610ad8610ad082610ab1565b848454610a33565b825550505050565b600090565b610aed610ae0565b610af8818484610abb565b505050565b5b81811015610b1c57610b11600082610ae5565b600181019050610afe565b5050565b601f821115610b6157610b3281610a01565b610b3b84610a16565b81016020851015610b4a578190505b610b5e610b5685610a16565b830182610afd565b50505b505050565b600082821c905092915050565b6000610b8460001984600802610b66565b1980831691505092915050565b6000610b9d8383610b73565b9150826002028217905092915050565b610bb682610791565b67ffffffffffffffff811115610bcf57610bce6105a1565b5b610bd982546109d0565b610be4828285610b20565b600060209050601f831160018114610c175760008415610c05578287015190505b610c0f8582610b91565b865550610c77565b601f198416610c2586610a01565b60005b82811015610c4d57848901518255600182019150602085019450602081019050610c28565b86831015610c6a5784890151610c66601f891682610b73565b8355505b6001600288020188555050505b505050505050565b600081549050610c8e816109d0565b9050919050565b818103610ca3575050610d7b565b610cac82610c7f565b67ffffffffffffffff811115610cc557610cc46105a1565b5b610ccf82546109d0565b610cda828285610b20565b6000601f831160018114610d095760008415610cf7578287015490505b610d018582610b91565b865550610d74565b601f198416610d1787610a01565b9650610d2286610a01565b60005b82811015610d4a57848901548255600182019150600185019450602081019050610d25565b86831015610d675784890154610d63601f891682610b73565b8355505b6001600288020188555050505b5050505050505b565b600082825260208201905092915050565b6000610d9982610791565b610da38185610d7d565b9350610db38185602086016107ad565b610dbc81610590565b840191505092915050565b60006060820190508181036000830152610de18186610d8e565b9050610df06020830185610548565b610dfd6040830184610548565b949350505050565b610e0e81610770565b82525050565b60006060820190508181036000830152610e2e8186610d8e565b9050610e3d6020830185610e05565b610e4a6040830184610548565b94935050505056fea264697066735822122065264f9c37c36d62c7d3387132a0331a7a858f45d010349acb7124292847d55764736f6c63430008110033",
  "linkReferences": {},
  "deployedLinkReferences": {}
}